:020000040800F2
:10000000000001204D170008351500083B150008B9
:1000100041150008471500084D15000800000000B4
:100020000000000000000000000000005315000860
:1000300061150008000000006F1500087D1500081C
:100040009D1700089D1700089D1700089D170008C0
:100050009D1700089D1700089D1700089D170008B0
:100060009D1700089D1700089D1700089D170008A0
:100070009D1700089D1700089D1700089D17000890
:100080009D1700089D1700089D170008000000003C
:100090000000000000000000000000009D170008A4
:1000A0009D1700089D1700089D1700089D17000860
:1000B0009D1700089D1700089D1700089D17000850
:1000C0009D1700089D1700089D1700089D17000840
:1000D0009D170008891500089D1700080000000002
:1000E0009D1700089D1700089D17000800000000DC
:1000F0000000000000000000000000009D17000844
:10010000000000009D1700089D1700089D170008BB
:1001100000000000000000000000000000000000DF
:100120009D1700089D1700089D1700089D170008DF
:100130009D17000800000000000000000000000003
:100140000000000000000000000000009D170008F3
:100150009D1700089D1700089D1700089D170008AF
:100160009D1700089D170008000000000000000017
:10017000000000000000000000000000000000007F
:10018000000000009D1700080000000000000000B3
:040190009D170008AF
:1001A00010B5054C237833B9044B13B10448AFF3B1
:1001B00000800123237010BDB8090020000000005A
:1001C0004C88000808B5034B1BB103490348AFF343
:1001D000008008BD00000000BC0900204C88000819
:1001E000034613F8012B002AFBD1181A0138704777
:1001F00001F0FF01102A2BDB10F0070F08D010F8D8
:10020000013B013A8B422DD010F0070F42B3F6D1DB
:10021000F0B441EA012141EA014122F007047FF0F4
:1002200000070023F0E80256083C85EA010586EA4B
:10023000010685FA47F5A3FA87F586FA47F6A5FA87
:1002400087F68EB9EED1F0BC01F0FF0102F0070293
:1002500032B110F8013B013A83EA010313B1F8D13E
:100260000020704701387047002D06BF354603381F
:10027000073815F0010F07D1013015F4807F02BF58
:10028000013015F4C03F0130F0BC0138704700BFA9
:1002900081F0004102E000BF83F0004330B54FEA37
:1002A00041044FEA430594EA050F08BF90EA020FA4
:1002B0001FBF54EA000C55EA020C7FEA645C7FEA37
:1002C000655C00F0E2804FEA5454D4EB5555B8BF5A
:1002D0006D420CDD2C4480EA020281EA030382EACB
:1002E000000083EA010180EA020281EA0303362D5D
:1002F00088BF30BD11F0004F4FEA01314FF4801C30
:100300004CEA113102D0404261EB410113F0004F41
:100310004FEA03334CEA133302D0524263EB4303F8
:1003200094EA050F00F0A780A4F10104D5F1200E96
:100330000DDB02FA0EFC22FA05F2801841F10001F1
:1003400003FA0EF2801843FA05F359410EE0A5F1C5
:1003500020050EF1200E012A03FA0EFC28BF4CF0F6
:10036000020C43FA05F3C01851EBE37101F00045AC
:1003700007D54FF0000EDCF1000C7EEB00006EEBB9
:100380000101B1F5801F1BD3B1F5001F0CD3490843
:100390005FEA30004FEA3C0C04F101044FEA44529A
:1003A00012F5800F80F09A80BCF1004F08BF5FEA21
:1003B000500C50F1000041EB045141EA050130BD01
:1003C0005FEA4C0C404141EB0101013C28BFB1F513
:1003D000801FE9D291F0000F04BF01460020B1FA5E
:1003E00081F308BF2033A3F10B03B3F120020CDA31
:1003F0000C3208DD02F1140CC2F10C0201FA0CF00F
:1004000021FA02F10CE002F11402D8BFC2F1200C73
:1004100001FA02F120FA0CFCDCBF41EA0C01904029
:10042000E41AA2BF01EB0451294330BD6FEA040472
:100430001F3C1CDA0C340EDC04F11404C4F120025D
:1004400020FA04F001FA02F340EA030021FA04F36F
:1004500045EA030130BDC4F10C04C4F1200220FAC6
:1004600002F001FA04F340EA0300294630BD21FA04
:1004700004F0294630BD94F0000F83F4801306BFCA
:1004800081F480110134013D4EE77FEA645C18BFBE
:100490007FEA655C29D094EA050F08BF90EA020F55
:1004A00005D054EA000C04BF1946104630BD91EA4D
:1004B000030F1EBF0021002030BD5FEA545C05D150
:1004C0004000494128BF41F0004130BD14F580048F
:1004D0003CBF01F5801130BD01F0004545F0FE4103
:1004E00041F470014FF0000030BD7FEA645C1ABF38
:1004F000194610467FEA655C1CBF0B46024650EA6F
:10050000013406BF52EA033591EA030F41F400219A
:1005100030BD00BF90F0000F04BF0021704730B520
:100520004FF4806404F132044FF000054FF00001F5
:1005300050E700BF90F0000F04BF0021704730B5B6
:100540004FF4806404F1320410F0004548BF40428B
:100550004FF000013EE700BF42004FEAE2014FEAE0
:1005600031014FEA02701FBF12F07F4393F07F4FBB
:1005700081F06051704732F07F4208BF704793F0BE
:100580007F4F04BF41F40021704730B54FF46074D1
:1005900001F0004521F000411CE700BF50EA0102D4
:1005A00008BF704730B54FF000050AE050EA01027D
:1005B00008BF704730B511F0004502D5404261EBED
:1005C00041014FF4806404F132045FEA915C3FF42E
:1005D000D8AE4FF003025FEADC0C18BF03325FEACB
:1005E000DC0C18BF033202EBDC02C2F1200300FA7C
:1005F00003FC20FA02F001FA03FE40EA0E0021FAA1
:1006000002F11444BDE600BF70B54FF0FF0C4CF48E
:10061000E06C1CEA11541DBF1CEA135594EA0C0F40
:1006200095EA0C0F00F0DEF82C4481EA030621EA7B
:100630004C5123EA4C5350EA013518BF52EA0335B6
:1006400041F4801143F4801338D0A0FB02CE4FF068
:100650000005E1FB02E506F00042E0FB03E54FF098
:100660000006E1FB03569CF0000F18BF4EF0010E90
:10067000A4F1FF04B6F5007F64F5407404D25FEA8C
:100680004E0E6D4146EB060642EAC62141EA55513F
:100690004FEAC52040EA5E504FEACE2EB4F1FD0C81
:1006A00088BFBCF5E06F1ED8BEF1004F08BF5FEAFF
:1006B000500E50F1000041EB045170BD06F00046B1
:1006C00046EA010140EA020081EA0301B4EB5C045E
:1006D000C2BFD4EB0C0541EA045170BD41F4801156
:1006E0004FF0000E013C00F3AB8014F1360FDEBF7B
:1006F000002001F0004170BDC4F10004203C35DA57
:100700000C341BDC04F11404C4F1200500FA05F3D9
:1007100020FA04F001FA05F240EA020001F000427A
:1007200021F0004110EBD37021FA04F642EB0601F0
:100730005EEA430E08BF20EAD37070BDC4F10C041A
:10074000C4F1200500FA04F320FA05F001FA04F2DE
:1007500040EA020001F0004110EBD37041F10001CA
:100760005EEA430E08BF20EAD37070BDC4F12005D5
:1007700000FA05F24EEA020E20FA04F301FA05F23D
:1007800043EA020321FA04F001F0004121FA04F2E5
:1007900020EA020000EBD3705EEA430E08BF20EAB5
:1007A000D37070BD94F0000F0FD101F000464000EF
:1007B00041EB010111F4801F08BF013CF7D041EA71
:1007C000060195F0000F18BF704703F00046520075
:1007D00043EB030313F4801F08BF013DF7D043EA46
:1007E0000603704794EA0C0F0CEA135518BF95EAFC
:1007F0000C0F0CD050EA410618BF52EA4306D1D183
:1008000081EA030101F000414FF0000070BD50EAA1
:10081000410606BF1046194652EA430619D094EA2B
:100820000C0F02D150EA013613D195EA0C0F05D115
:1008300052EA03361CBF104619460AD181EA030169
:1008400001F0004141F0FE4141F470014FF0000021
:1008500070BD41F0FE4141F4780170BD70B54FF0BC
:10086000FF0C4CF4E06C1CEA11541DBF1CEA13553C
:1008700094EA0C0F95EA0C0F00F0A7F8A4EB05041E
:1008800081EA030E52EA03354FEA013100F0888015
:100890004FEA03334FF0805545EA131343EA1263DE
:1008A0004FEA022245EA111545EA10654FEA002693
:1008B0000EF000419D4208BF964244F1FD0404F54C
:1008C000407402D25B084FEA3202B61A65EB0305A8
:1008D0005B084FEA32024FF480104FF4002CB6EB65
:1008E000020E75EB030E22BFB61A754640EA0C00E5
:1008F0005B084FEA3202B6EB020E75EB030E22BF25
:10090000B61A754640EA5C005B084FEA3202B6EB65
:10091000020E75EB030E22BFB61A754640EA9C0024
:100920005B084FEA3202B6EB020E75EB030E22BFF4
:10093000B61A754640EADC0055EA060E18D04FEAB2
:10094000051545EA16754FEA06164FEAC30343EA52
:1009500052734FEAC2025FEA1C1CC0D111F4801F1F
:100960000BD141EA00014FF000004FF0004CB6E718
:1009700011F4801F04BF01430020B4F1FD0C88BFB7
:10098000BCF5E06F3FF6AFAEB5EB030C04BFB6EBC2
:10099000020C5FEA500C50F1000041EB045170BDB5
:1009A0000EF0004E4EEA113114EB5C04C2BFD4EBE2
:1009B0000C0541EA045170BD41F480114FF0000E66
:1009C000013C90E645EA060E8DE60CEA135594EAE2
:1009D0000C0F08BF95EA0C0F3FF43BAF94EA0C0FE5
:1009E0000AD150EA01347FF434AF95EA0C0F7FF45A
:1009F00025AF104619462CE795EA0C0F06D152EAAE
:100A000003353FF4FDAE1046194622E750EA410691
:100A100018BF52EA43067FF4C5AE50EA41047FF4A2
:100A20000DAF52EA43057FF4EBAE12E74FF0FF3C07
:100A300006E000BF4FF0010C02E000BF4FF0010CD8
:100A40004DF804CD4FEA410C7FEA6C5C4FEA430C51
:100A500018BF7FEA6C5C1BD001B050EA410C0CBFA0
:100A600052EA430C91EA030F02BF90EA020F002002
:100A7000704710F1000F91EA030F58BF994208BF69
:100A800090422CBFD8176FEAE37040F00100704726
:100A90004FEA410C7FEA6C5C02D150EA013C07D17D
:100AA0004FEA430C7FEA6C5CD6D152EA033CD3D0C8
:100AB0005DF8040B704700BF8446104662468C46C2
:100AC0001946634600E000BF01B5FFF7B7FF0028F5
:100AD00048BF10F1000F01BD4DF808EDFFF7F4FF1E
:100AE0000CBF012000205DF808FB00BF4DF808EDA9
:100AF000FFF7EAFF34BF012000205DF808FB00BFCC
:100B00004DF808EDFFF7E0FF94BF012000205DF8ED
:100B100008FB00BF4DF808EDFFF7CEFF94BF0120A2
:100B200000205DF808FB00BF4DF808EDFFF7C4FF9B
:100B300034BF012000205DF808FB00BF4FEA410CE4
:100B40007FEA6C5C02D150EA013C0AD14FEA430CC7
:100B50007FEA6C5C02D152EA033C02D14FF0000004
:100B600070474FF0010070474FEA410212F5001242
:100B700015D211D56FF47873B3EB625212D94FEAE4
:100B8000C12343F0004343EA505311F0004F23FACE
:100B900002F018BF404270474FF00000704750EA23
:100BA000013005D111F0004008BF6FF000407047E0
:100BB0004FF00000704700BF53B94AB9002908BF81
:100BC00000281CBF4FF0FF314FF0FF3000F074B928
:100BD000ADF1080C6DE904CE00F006F8DDF804E094
:100BE000DDE9022304B070472DE9F047089D044673
:100BF0008E46002B4DD18A42944669D9B2FA82F2D0
:100C000052B101FA02F3C2F1200120FA01F10CFA0B
:100C100002FC41EA030E94404FEA1C48210CBEFB43
:100C2000F8F61FFA8CF708FB16E341EA034306FBCC
:100C300007F199420AD91CEB030306F1FF3080F05B
:100C40001F81994240F21C81023E63445B1AA4B2A8
:100C5000B3FBF8F008FB103344EA034400FB07F74A
:100C6000A7420AD91CEB040400F1FF3380F00A818B
:100C7000A74240F207816444023840EA0640E41B80
:100C800000261DB1D4400023C5E900433146BDE82C
:100C9000F0878B4209D9002D00F0EF800026C5E9CE
:100CA000000130463146BDE8F087B3FA83F6002EE6
:100CB0004AD18B4202D3824200F2F980841A61EB5E
:100CC000030301209E46002DE0D0C5E9004EDDE77C
:100CD00002B9FFDEB2FA82F2002A40F09280A1EB64
:100CE0000C014FEA1C471FFA8CFE0126200CB1FBB9
:100CF000F7F307FB131140EA01410EFB03F08842B2
:100D000008D91CEB010103F1FF3802D2884200F23E
:100D1000CB804346091AA4B2B1FBF7F007FB1011D0
:100D200044EA01440EFB00FEA64508D91CEB04046E
:100D300000F1FF3102D2A64500F2BB800846A4EBC9
:100D40000E0440EA03409CE7C6F12007B34022FAB4
:100D500007FC4CEA030C20FA07F401FA06F31C43E3
:100D6000F9404FEA1C4900FA06F3B1FBF9F8200CF0
:100D70001FFA8CFE09FB181140EA014108FB0EF036
:100D8000884202FA06F20BD91CEB010108F1FF3A86
:100D900080F08880884240F28580A8F10208614492
:100DA000091AA4B2B1FBF9F009FB101144EA0141A0
:100DB00000FB0EFE8E4508D91CEB010100F1FF344B
:100DC0006CD28E456AD90238614440EA0840A0FBE3
:100DD0000294A1EB0E01A142C846A64656D353D0B9
:100DE0005DB1B3EB080261EB0E0101FA07F722FADD
:100DF00006F3F1401F43C5E9007100263146BDE806
:100E0000F087C2F12003D8400CFA02FC21FA03F368
:100E1000914001434FEA1C471FFA8CFEB3FBF7F0E9
:100E200007FB10360B0C43EA064300FB0EF69E420E
:100E300004FA02F408D91CEB030300F1FF382FD2A7
:100E40009E422DD9023863449B1B89B2B3FBF7F64F
:100E500007FB163341EA034106FB0EF38B4208D928
:100E60001CEB010106F1FF3816D28B4214D9023E69
:100E70006144C91A46EA004638E72E46284605E787
:100E80000646E3E61846F8E64B45A9D2B9EB020858
:100E900064EB0C0E0138A3E74646EAE7204694E7E8
:100EA0004046D1E7D0467BE7023B614432E730461B
:100EB00009E76444023842E7704700BF00000000C1
:100EC0002DE9B04F9EB000AF00F06AFC00F006F9CB
:100ED00000F09AF900F06EF900F060F94FF48062CA
:100EE0004FF00003C7E91C23D7E91C0102460B465B
:100EF00012EB020A43EB030B52465B46141843EB1A
:100F000001054FF000024FF00003EB0043EA547379
:100F1000E20014461D4622462B4612F1006843F1BA
:100F20000009C7E91A8908237B6666A3D3E9002371
:100F3000C7E9162365A3D3E90023C7E9142365A3F2
:100F4000D3E90023C7E912234FF0F0324FF0F0331A
:100F5000C7E91023642319225549564801F053FF6D
:100F6000BB6E184600F06AF964230F2252495148BB
:100F700001F049FFB96ED7E91623084600F0BEF923
:100F8000BA6E7B6ED118D7E91423084600F0B6F983
:100F90007B6E5A00BB6ED118D7E91223084600F0C9
:100FA000ADF97A6E13465B001A44BB6ED118D7E9CF
:100FB0001023084600F0A2F9642317223F493D4858
:100FC00001F021FFBA6E3B6FD31A184600F036F9D4
:100FD00064230F223849374801F015FFBA6E3B6F82
:100FE000D11AD7E91623084600F088F9BA6E3B6F8C
:100FF000D31A03F10801D7E91423084600F07EF95B
:10100000BA6E3B6FD31A03F11001D7E912230846D9
:1010100000F074F9BA6E3B6FD31A03F11801D7E9E7
:101020001023084600F06AF964230E22244921485F
:1010300001F0E9FEBB6E184600F0BAF90346002243
:10104000BB61FA61D7E90634C7E90E34BA6E7B6E2C
:101050001344184600F0ACF9034600223B617A6164
:10106000D7E90434C7E90C347B6E5A00BB6E1344D5
:10107000184600F09DF903460022BB60FA60D7E9EC
:101080000234C7E90A347A6E13465B001A44BB6E19
:101090001344184600F08CF9034600223B607A6046
:1010A000D7E90034C7E90834FEE700BFAFF300809A
:1010B00068880008D4090020848800089488000803
:1010C000AC8800083266276745276745DDDCECCD34
:1010D000DDDCECCD000304030003040380B594B011
:1010E00000AF07F1200330220021184602F07CFEF9
:1010F00007F10C0300221A605A609A60DA601A61E4
:101100000023BB60234B1B6C224A43F080531364C3
:10111000204B1B6C03F08053BB60BB6800237B60DB
:101120001D4B1B6823F440431B4A43F400431360E8
:10113000194B1B6803F440437B607B6802233B62CE
:101140000123FB6210233B630023BB6307F12003F1
:10115000184601F0B3F90346002B01D000F074F9F2
:101160000F23FB6000233B6100237B610023BB61F5
:101170000023FB6107F10C030021184601F016FC67
:101180000346002B01D000F05FF900BF5037BD4689
:1011900080BD00BF003802400070004080B500AF45
:1011A00000220021252000F048FC252000F061FCF1
:1011B00000BF80BD80B500AF114B124A1A60104BC2
:1011C0004FF416525A600E4B00229A600C4B0022CC
:1011D000DA600B4B00221A61094B0C225A61084B52
:1011E00000229A61064B0022DA61054801F0BEFD3B
:1011F0000346002B01D000F027F900BF80BD00BFDF
:10120000D40900200010014080B483B000AF002357
:101210007B60094B1B6B084A43F001031363064BC9
:101220001B6B03F001037B607B6800BF0C37BD467E
:101230005DF8047B704700BF0038024080B59CB069
:1012400002AF786000233B657B68BB650123FB65CB
:1012500001237B650023FB640023FB6007F110037F
:101260003C220021184602F0BFFD00F003FD07F10B
:101270004C0207F150031146184600F079FE034670
:10128000002B17D000F028FD786607F10C007B6E6C
:10129000174A402102F0B0FD07F10C031846FEF793
:1012A0009FFF03469AB207F10C016423114801F035
:1012B000AAFDFEE77B6803F2FF3307F10C00009301
:1012C0007B680D4A402102F097FD07F10C03184698
:1012D000FEF786FF03469AB207F10C016423054826
:1012E00001F091FD00F0E8FC00BF6837BD4680BD0D
:1012F000BC880008D4090020D888000880B59AB0BE
:1013000004AFF860C7E9002300237B6107F11803ED
:101310003C220021184602F067FD00F0ABFCD7E943
:101320000023F968032000F051FC0346002B1AD07B
:1013300000F0D2FC0346A7F85630B7F8563007F154
:101340001400184A402102F057FD07F11403184613
:10135000FEF746FF03469AB207F1140164231248D0
:1013600001F051FDFEE707F11400FB680293D7E995
:101370000023CDE900230D4A402102F03DFD07F195
:1013800014031846FEF72CFF03469AB207F1140126
:101390006423054801F037FD00F08EFC00BF58378C
:1013A000BD4680BD14890008D4090020308900089A
:1013B00080B598B004AF78600023BB6007F10C03E0
:1013C0003C220021184602F00FFD7B68D3E9002380
:1013D000C7E9122307F10800D7E91223CDE9022358
:1013E000D7E91223CDE90023144A402102F004FD7D
:1013F00007F108031846FEF7F3FE03469AB207F119
:10140000080164230E4801F0FEFC07F108007B6828
:101410000C4A402102F0F0FC07F108031846FEF7E1
:10142000DFFE03469AB207F108016423044801F085
:10143000EAFCBB6C18465037BD4680BD6489000885
:10144000D40900209089000880B400AF72B600BFB4
:10145000FEE7000080B483B000AF00237B60104B38
:101460005B6C0F4A43F4804353640D4B5B6C03F495
:1014700080437B607B6800233B60094B1B6C084A00
:1014800043F080531364064B1B6C03F080533B60A6
:101490003B6800BF0C37BD465DF8047B704700BF5A
:1014A0000038024080B58AB000AF786007F11403BD
:1014B00000221A605A609A60DA601A617B681B68C1
:1014C000194A93422CD100233B61184B5B6C174A9D
:1014D00043F010035364154B5B6C03F010033B6146
:1014E0003B690023FB60114B1B6B104A43F0010367
:1014F00013630E4B1B6B03F00103FB60FB684FF49F
:10150000C0637B610223BB610023FB6103233B6259
:1015100007237B6207F114031946054800F04AFED1
:1015200000BF2837BD4680BD001001400038024092
:101530000000024080B400AFFEE780B400AFFEE7D9
:1015400080B400AFFEE780B400AFFEE780B400AF28
:10155000FEE780B400AF00BFBD465DF8047B704776
:1015600080B400AF00BFBD465DF8047B704780B417
:1015700000AF00BFBD465DF8047B704780B500AF8B
:1015800000F060F900BF80BD80B500AF024801F0F7
:10159000CDFC00BF80BD00BFD409002080B400AFE7
:1015A00001231846BD465DF8047B704780B582B0C4
:1015B00000AF7860396002F0EDFB034616221A6036
:1015C0004FF0FF3318460837BD4680BD80B582B066
:1015D00000AF78604FF0FF317868FFF7E7FFFEE774
:1015E00080B586B000AFF860B9607A6000237B6197
:1015F0000AE0AFF300800146BB685A1CBA60CAB269
:101600001A707B6901337B617A697B689A42F0DBEF
:101610007B6818461837BD4680BD80B586B000AFE0
:10162000F860B9607A6000237B6109E0BB685A1CEE
:10163000BA601B781846AFF300807B6901337B6189
:101640007A697B689A42F1DB7B6818461837BD4699
:1016500080BD80B483B000AF78604FF0FF33184690
:101660000C37BD465DF8047B704780B483B000AF93
:10167000786039603B684FF400525A600023184686
:101680000C37BD465DF8047B704780B483B000AF73
:101690007860012318460C37BD465DF8047B70471F
:1016A00080B485B000AFF860B9607A600023184656
:1016B0001437BD465DF8047B7047000080B586B0E6
:1016C00000AF7860144A154BD31A7B617B693B618C
:1016D000134B1B68002B02D1114B124A1A60104B9E
:1016E0001A687B6813443A699A4207D202F052FBA7
:1016F00003460C221A604FF0FF3309E0084B1B68C9
:10170000FB60074B1A687B681344054A1360FB684B
:1017100018461837BD4680BD0000012000040000B7
:10172000180A0020800A002080B400AF064BD3F8CE
:101730008830054A43F47003C2F8883000BFBD46C4
:101740005DF8047B704700BF00ED00E0DFF834D0A7
:101750000D480E490E4A002302E0D458C450043309
:10176000C4188C42F9D30B4A0B4C002301E01360E0
:101770000432A242FBD3FFF7D7FF02F011FBFFF7C1
:101780009FFB70470000012000000020B8090020E6
:10179000708D0008B80900207C0A0020FEE70000D8
:1017A00080B500AF0E4B1B680D4A43F40073136005
:1017B0000B4B1B680A4A43F480631360084B1B6899
:1017C000074A43F480731360032000F02BF90F20C5
:1017D00000F008F8FFF73EFE0023184680BD00BF6A
:1017E000003C024080B582B000AF7860124B1A68AE
:1017F000124B1B7819464FF47A73B3FBF1F3B2FB2B
:10180000F3F3184600F043F90346002B01D00123FF
:101810000EE07B680F2B0AD8002279684FF0FF306A
:1018200000F00BF9064A7B681360002300E00123F7
:1018300018460837BD4680BD000000200800002083
:101840000400002080B400AF064B1B781A46064BFC
:101850001B681344044A136000BFBD465DF8047B57
:10186000704700BF080000201C0A002080B400AFB1
:10187000034B1B681846BD465DF8047B704700BFEC
:101880001C0A002080B485B000AF78607B6803F04C
:101890000703FB600C4BDB68BB60BA684FF6FF03C5
:1018A0001340BB60FB681A02BB68134343F0BF637D
:1018B00043F40033BB60044ABB68D36000BF1437F5
:1018C000BD465DF8047B704700ED00E080B400AFDA
:1018D000044BDB681B0A03F007031846BD465DF89E
:1018E000047B704700ED00E080B483B000AF034696
:1018F000FB7197F90730002B0BDBFB7903F01F021C
:10190000074997F907305B09012000FA02F241F814
:10191000232000BF0C37BD465DF8047B704700BF35
:1019200000E100E080B483B000AF03463960FB7192
:1019300097F90730002B0ADB3B68DAB20C4997F9BC
:1019400007301201D2B20B4483F800230AE03B684F
:10195000DAB20849FB7903F00F03043B1201D2B25B
:101960000B441A7600BF0C37BD465DF8047B704708
:1019700000E100E000ED00E080B489B000AFF86065
:10198000B9607A60FB6803F00703FB61FB69C3F190
:101990000703042B28BF0423BB61FB690433062B18
:1019A00002D9FB69033B00E000237B614FF0FF326B
:1019B000BB6902FA03F3DA43BB681A407B699A40B9
:1019C0004FF0FF317B6901FA03F3D9437B680B4089
:1019D000134318462437BD465DF8047B704700006A
:1019E00080B582B000AF78607B68013BB3F1807F47
:1019F00001D301230FE00A4A7B68013B53600F21AA
:101A00004FF0FF30FFF78EFF054B00229A60044B2A
:101A100007221A60002318460837BD4680BD00BF64
:101A200010E000E080B582B000AF78607868FFF722
:101A300029FF00BF0837BD4680BD80B586B000AF26
:101A40000346B9607A60FB7300237B61FFF73EFFBA
:101A500078617A68B9687869FFF78EFF024697F96E
:101A60000F3011461846FFF75DFF00BF1837BD461F
:101A700080BD80B582B000AF0346FB7197F9073097
:101A80001846FFF731FF00BF0837BD4680BD80B55F
:101A900082B000AF78607868FFF7A2FF034618466F
:101AA0000837BD4680BD80B584B000AF78607B68E4
:101AB0009B6DFB60FFF7DAFEB8607B6893F835300A
:101AC000DBB2022B08D07B6880225A657B6800223B
:101AD00083F83420012352E07B681B681A687B6816
:101AE0001B6822F016021A607B681B685A697B68C3
:101AF0001B6822F080025A617B681B6C002B03D1AB
:101B00007B689B6C002B07D07B681B681A687B681E
:101B10001B6822F008021A607B681B681A687B68E1
:101B20001B6822F001021A6013E0FFF79FFE0246D5
:101B3000BB68D31A052B0CD97B6820225A657B68B9
:101B4000032283F835207B68002283F834200323A6
:101B500015E07B681B681B6803F00103002BE4D1D0
:101B60007B68DB6D3F229A40FB689A607B680122AC
:101B700083F835207B68002283F834200023184640
:101B80001037BD4680BD80B483B000AF78607B68FD
:101B900093F83530DBB2022B04D07B6880225A6583
:101BA00001230CE07B68052283F835207B681B68E5
:101BB0001A687B681B6822F001021A60002318462D
:101BC0000C37BD465DF8047B7047000080B586B0D9
:101BD00000AFF860B960C7E900230123FB75234B10
:101BE0001B7E012B01D102233BE0204B01221A7600
:101BF0004CF2503000F07CF80346FB75FB7D002B67
:101C00002BD1FB68002B05D13B781946B86800F052
:101C100027F916E0FB68012B05D13B881946B86807
:101C200000F0FAF80DE0FB68022B05D13B6819467D
:101C3000B86800F0CFF804E0D7E90023B86800F0F6
:101C400097F84CF2503000F053F80346FB75084B00
:101C50001B69074A23F001031361044B00221A7623
:101C6000FB7D18461837BD4680BD00BF200A002006
:101C7000003C024080B483B000AF0023FB710B4BEB
:101C80001B69002B0BDA094B094A5A60074B094ABA
:101C90005A60064B1B69002B01DA0123FB71FB79AB
:101CA00018460C37BD465DF8047B7047003C024087
:101CB00023016745AB89EFCD80B400AF054B1B69AD
:101CC000044A43F00043136100231846BD465DF803
:101CD000047B7047003C024080B400AF034BDB69DB
:101CE0001846BD465DF8047B704700BF200A0020FF
:101CF00080B584B000AF78600023FB601A4B0022EF
:101D0000DA61FFF7B3FDF86010E07B68B3F1FF3FE5
:101D10000CD07B68002B07D0FFF7A8FD0246FB68BC
:101D2000D31A7A689A4201D2032319E00F4BDB6879
:101D300003F48033002BE8D10C4BDB6803F0010384
:101D4000002B02D0094B0122DA60084BDB6803F458
:101D5000F973002B03D000F0A5F8012300E0002365
:101D600018461037BD4680BD200A0020003C0240C6
:101D700080B485B000AFF860C7E90023144B1B693D
:101D8000134A23F440731361114B1B69104A43F447
:101D9000407313610E4B1B690D4A43F0010313613D
:101DA000FB683A681A60BFF36F8F00BFD7E9000184
:101DB0004FF000024FF000030A000023F9680431DD
:101DC00013460B6000BF1437BD465DF8047B7047B7
:101DD000003C024080B483B000AF786039600D4BA6
:101DE0001B690C4A23F4407313610A4B1B69094AAF
:101DF00043F400731361074B1B69064A43F0010368
:101E000013617B683A681A6000BF0C37BD465DF805
:101E1000047B7047003C024080B483B000AF786020
:101E20000B467B800D4B1B690C4A23F440731361F6
:101E30000A4B1B69094A43F480731361074B1B6902
:101E4000064A43F0010313617B687A881A8000BF59
:101E50000C37BD465DF8047B704700BF003C024074
:101E600080B483B000AF78600B46FB700C4B1B69ED
:101E70000B4A23F440731361094B094A1B69136130
:101E8000074B1B69064A43F0010313617B68FA782C
:101E90001A7000BF0C37BD465DF8047B704700BF69
:101EA000003C024080B400AF2F4BDB6803F010030E
:101EB000002B08D02D4BDB6943F010032B4AD36174
:101EC000294B1022DA60284BDB6803F02003002B3B
:101ED00008D0264BDB6943F00803244AD361224B28
:101EE0002022DA60204BDB6803F04003002B08D08F
:101EF0001E4BDB6943F004031C4AD3611A4B40229A
:101F0000DA60194BDB6803F08003002B08D0174B15
:101F1000DB6943F00203154AD361134B8022DA6078
:101F2000114BDB6803F48073002B09D00F4BDB6986
:101F300043F001030D4AD3610B4B4FF48072DA601A
:101F4000094BDB6803F00203002B08D0074BDB6969
:101F500043F02003054AD361034B0222DA6000BF3D
:101F6000BD465DF8047B7047003C0240200A00201B
:101F700080B584B000AF786039600123FB73002323
:101F8000BB60314B1B7E012B01D1022358E02E4B4D
:101F900001221A764CF25030FFF7AAFE0346FB737B
:101FA000FB7B002B48D13B684FF0FF321A607B6807
:101FB0001B68012B15D17B681B69DAB27B685B68F3
:101FC0001946104600F044F84CF25030FFF790FEEE
:101FD0000346FB731D4B1B691C4A23F0040313616A
:101FE00028E07B689B68BB601CE07B681B69DBB2F8
:101FF0001946B86800F050F84CF25030FFF778FE00
:102000000346FB73114B1B69104A23F0FA0313615B
:10201000FB7B002B03D03B68BA681A600AE0BB6800
:102020000133BB607B68DA687B689B681344BA68DD
:102030009A42DAD300F078F8034B00221A76FB7B41
:1020400018461037BD4680BD200A0020003C0240E3
:1020500080B483B000AF03463960FB710D4B1B6940
:102060000C4A23F4407313610A4B1B69094A43F07D
:1020700004031361074B1A69FB791B021343054ADA
:1020800043F48033136100BF0C37BD465DF8047B19
:10209000704700BF003C024080B485B000AF78605C
:1020A0000B46FB700023FB60FB78002B02D1002362
:1020B000FB6010E0FB78012B03D14FF48073FB60D1
:1020C00009E0FB78022B03D14FF40073FB6002E0C0
:1020D0004FF44073FB60134B1B69124A23F44073A7
:1020E0001361104B1A690F49FB6813430B610D4BC9
:1020F0001B690C4A23F0F80313610A4B1A697B68C9
:10210000DB001343074A43F002031361054B1B69CD
:10211000044A43F48033136100BF1437BD465DF8B1
:10212000047B7047003C024080B400AF204B1B682A
:1021300003F40073002B17D01D4B1B681C4A23F4BB
:10214000007313601A4B1B68194A43F40063136051
:10215000174B1B68164A23F400631360144B1B686B
:10216000134A43F400731360114B1B6803F480633C
:10217000002B17D00E4B1B680D4A23F480631360AD
:102180000B4B1B680A4A43F480531360084B1B68CF
:10219000074A23F480531360054B1B68044A43F439
:1021A0008063136000BFBD465DF8047B704700BFCD
:1021B000003C024080B489B000AF786039600023F1
:1021C0007B6100233B610023BB610023FB6159E17C
:1021D0000122FB6902FA03F37B613B681B687A69A1
:1021E00013403B613A697B699A4240F048813B6801
:1021F0005B6803F00303012B05D03B685B6803F0C9
:102200000303022B30D17B689B68BB61FB695B00D9
:10221000032202FA03F3DB43BA691340BB613B6854
:10222000DA68FB695B0002FA03F3BA691343BB6126
:102230007B68BA699A607B685B68BB610122FB6955
:1022400002FA03F3DB43BA691340BB613B685B6886
:102250001B0903F00102FB6902FA03F3BA69134395
:10226000BB617B68BA695A603B685B6803F0030333
:10227000032B17D07B68DB68BB61FB695B00032223
:1022800002FA03F3DB43BA691340BB613B689A6807
:10229000FB695B0002FA03F3BA691343BB617B6815
:1022A000BA69DA603B685B6803F00303022B23D151
:1022B000FB69DA087B68083253F82230BB61FB699E
:1022C00003F007039B000F2202FA03F3DB43BA6912
:1022D0001340BB613B681A69FB6903F007039B006D
:1022E00002FA03F3BA691343BB61FB69DA087B683E
:1022F0000832B96943F822107B681B68BB61FB692F
:102300005B00032202FA03F3DB43BA691340BB61AB
:102310003B685B6803F00302FB695B0002FA03F3AE
:10232000BA691343BB617B68BA691A603B685B6832
:1023300003F44033002B00F0A2800023FB60574BD6
:102340005B6C564A43F480435364544B5B6C03F418
:102350008043FB60FB68524AFB699B08023352F8DA
:102360002330BB61FB6903F003039B000F2202FAD9
:1023700003F3DB43BA691340BB617B68494A93426C
:1023800019D07B68484A934213D07B68474A9342EE
:102390000DD07B68464A934207D07B68454A9342FA
:1023A00001D1042308E0072306E0032304E002230D
:1023B00002E0012300E00023FA6902F00302920028
:1023C0009340BA691343BB613549FB699B080233EB
:1023D000BA6941F82320384B9B68BB613B69DB43FA
:1023E000BA691340BB613B685B6803F48013002B40
:1023F00003D0BA693B691343BB612F4ABB69936041
:102400002D4BDB68BB613B69DB43BA691340BB61A1
:102410003B685B6803F40013002B03D0BA693B6987
:102420001343BB61244ABB69D360234B5B68BB6128
:102430003B69DB43BA691340BB613B685B6803F4EB
:102440000033002B03D0BA693B691343BB611A4ABE
:10245000BB695360184B1B68BB613B69DB43BA69BE
:102460001340BB613B685B6803F48033002B03D0EF
:10247000BA693B691343BB610F4ABB691360FB69CF
:102480000133FB61FB690F2B7FF6A2AE00BF00BFDB
:102490002437BD465DF8047B704700BF003802401A
:1024A00000380140000002400004024000080240E1
:1024B000000C024000100240003C014080B586B094
:1024C00000AF78607B68002B01D1012367E27B6855
:1024D0001B6803F00103002B75D0884B9B6803F049
:1024E0000C03042B0CD0854B9B6803F00C03082BCA
:1024F00012D1824B5B6803F48003B3F5800F0BD1DC
:102500007E4B1B6803F40033002B5BD07B685B6859
:10251000002B57D1012342E27B685B68B3F5803F13
:1025200006D1764B1B68754A43F4803313601DE077
:102530007B685B68B3F5A02F0CD1704B1B686F4AAA
:1025400043F4802313606D4B1B686C4A43F4803363
:1025500013600BE0694B1B68684A23F480331360F7
:10256000664B1B68654A23F4802313607B685B68B5
:10257000002B13D0FFF77AF9386108E0FFF776F9FE
:1025800002463B69D31A642B01D9032307E25B4B54
:102590001B6803F40033002BF0D014E0FFF766F95A
:1025A000386108E0FFF762F902463B69D31A642BF1
:1025B00001D90323F3E1514B1B6803F40033002BD3
:1025C000F0D100E000BF7B681B6803F00203002B22
:1025D00063D04A4B9B6803F00C03002B0BD0474B96
:1025E0009B6803F00C03082B1CD1444B5B6803F47D
:1025F0008003002B16D1414B1B6803F00203002B14
:1026000005D07B68DB68012B01D00123C7E13B4B80
:102610001B6823F0F8027B681B69DB003749134312
:102620000B603AE07B68DB68002B20D0344B012242
:102630001A60FFF71BF9386108E0FFF717F9024647
:102640003B69D31A022B01D90323A8E12B4B1B684A
:1026500003F00203002BF0D0284B1B6823F0F80294
:102660007B681B69DB00254913430B6015E0244B95
:1026700000221A60FFF7FAF8386108E0FFF7F6F871
:1026800002463B69D31A022B01D9032387E11B4B76
:102690001B6803F00203002BF0D17B681B6803F07A
:1026A0000803002B36D07B685B69002B16D0154BD6
:1026B00001221A60FFF7DAF8386108E0FFF7D6F870
:1026C00002463B69D31A022B01D9032367E10B4B66
:1026D0005B6F03F00203002BF0D01BE0094B0022DC
:1026E0001A60FFF7C3F838610EE0FFF7BFF8024643
:1026F0003B69D31A022B07D9032350E1003802406B
:1027000000004742800E4742884B5B6F03F0020394
:10271000002BEAD17B681B6803F00403002B00F058
:1027200097800023FB75814B1B6C03F08053002BBB
:102730000FD10023BB607D4B1B6C7C4A43F0805360
:1027400013647A4B1B6C03F08053BB60BB6801239E
:10275000FB75774B1B6803F48073002B18D1744B07
:102760001B68734A43F480731360FFF77FF8386186
:1027700008E0FFF77BF802463B69D31A022B01D928
:1027800003230CE16A4B1B6803F48073002BF0D029
:102790007B689B68012B06D1644B1B6F634A43F037
:1027A000010313671CE07B689B68052B0CD15F4B12
:1027B0001B6F5E4A43F0040313675C4B1B6F5B4A5D
:1027C00043F0010313670BE0584B1B6F574A23F08C
:1027D00001031367554B1B6F544A23F0040313671F
:1027E0007B689B68002B15D0FFF740F838610AE042
:1027F000FFF73CF802463B69D31A41F28832934214
:1028000001D90323CBE0494B1B6F03F00203002BDC
:10281000EED014E0FFF72AF838610AE0FFF726F857
:1028200002463B69D31A41F28832934201D903230D
:10283000B5E03E4B1B6F03F00203002BEED1FB7D96
:10284000012B05D1394B1B6C384A23F0805313649C
:102850007B689B69002B00F0A180344B9B6803F0E0
:102860000C03082B5CD07B689B69022B41D1314B58
:1028700000221A60FEF7FAFF386108E0FEF7F6FF63
:1028800002463B69D31A022B01D9032387E0274B69
:102890001B6803F00073002BF0D17B68DA697B685A
:1028A0001B6A1A437B685B6A9B011A437B689B6ABD
:1028B0005B08013B1B041A437B68DB6A1B061B4950
:1028C00013434B601B4B01221A60FEF7CFFF3861A8
:1028D00008E0FEF7CBFF02463B69D31A022B01D971
:1028E00003235CE0114B1B6803F00073002BF0D056
:1028F00054E0104B00221A60FEF7B8FF386108E080
:10290000FEF7B4FF02463B69D31A022B01D9032319
:1029100045E0064B1B6803F00073002BF0D13DE04F
:102920007B689B69012B07D1012338E00038024006
:1029300000700040600047421B4B5B68FB607B6897
:102940009B69012B28D0FB6803F480027B68DB695C
:102950009A4221D1FB6803F03F027B681B6A9A42CE
:102960001AD1FA6847F6C07313407A68526A920126
:10297000934211D1FB6803F440327B689B6A5B0889
:10298000013B1B049A4207D1FB6803F070627B682D
:10299000DB6A1B069A4201D0012300E0002318469F
:1029A0001837BD4680BD00BF0038024080B584B0F6
:1029B00000AF786039607B68002B01D10123CCE047
:1029C000684B1B6803F007033A689A420CD9654BC1
:1029D0003A68D2B21A70634B1B6803F007033A6877
:1029E0009A4201D00123B8E07B681B6803F0020320
:1029F000002B20D07B681B6803F00403002B05D05C
:102A0000594B9B68584A43F4E05393607B681B68BA
:102A100003F00803002B05D0534B9B68524A43F444
:102A200060439360504B9B6823F0F0027B689B6887
:102A30004D4913438B607B681B6803F00103002B37
:102A400044D07B685B68012B07D1474B1B6803F4BC
:102A50000033002B19D101237FE07B685B68022BD8
:102A600003D07B685B68032B07D13F4B1B6803F0E7
:102A70000073002B09D101236FE03B4B1B6803F06F
:102A80000203002B01D1012367E0374B9B6823F041
:102A900003027B685B68344913438B60FEF7E6FEF4
:102AA000F8600AE0FEF7E2FE0246FB68D31A41F244
:102AB0008832934201D903234FE02B4B9B6803F0EC
:102AC0000C027B685B689B009A42EBD1254B1B682C
:102AD00003F007033A689A420CD2224B3A68D2B20A
:102AE0001A70204B1B6803F007033A689A4201D022
:102AF000012332E07B681B6803F00403002B08D03D
:102B0000194B9B6823F4E0527B68DB68164913433A
:102B10008B607B681B6803F00803002B09D0124B05
:102B20009B6823F460427B681B69DB000E491343FA
:102B30008B6000F021F802460B4B9B681B0903F0E9
:102B40000F030A49CB5C22FA03F3094A1360094BCD
:102B50001B681846FEF746FE002318461037BD4690
:102B600080BD00BF003C024000380240AC89000834
:102B700000000020040000202DE9B04F90B000AF0D
:102B800000237B630023FB6300233B630023BB63C1
:102B9000594B9B6803F00C03082B0DD0082B00F257
:102BA000A180002B02D0042B03D09BE0534BBB63CE
:102BB0009BE0534BBB6398E04F4B5B6803F03F03D4
:102BC0007B634D4B5B6803F48003002B28D04A4B9A
:102BD0005B689B0900223B627A623B6AC3F3080090
:102BE0000021474B03FB01F2002300FB03F31344D6
:102BF000434AA0FB0212FA620A46BA62FA6A134416
:102C0000FB627B6B0022BB61FA61D7E90623D7E93F
:102C10000A01FDF7D1FF02460B461346FB6353E062
:102C2000354B5B689B0900223B617A613B69C3F3CA
:102C3000080A4FF0000B52465B464FF000004FF081
:102C40000001590141EAD261500102460B46B2EB44
:102C50000A0863EB0B094FF000024FF000034FEA44
:102C6000891343EA98634FEA8812B2EB080463EBD6
:102C700009054FF000024FF00003EB0043EA5473E4
:102C8000E20014461D4614EB0A033B6045EB0B03C0
:102C90007B604FF000024FF00003D7E90045294662
:102CA0008B02214643EA915321468A021046194677
:102CB0007B6B0022BB60FA60D7E90223FDF77CFF43
:102CC00002460B461346FB630B4B5B681B0C03F081
:102CD000030301335B003B63FA6B3B6BB2FBF3F323
:102CE000BB6302E0054BBB6300BFBB6B18464037BC
:102CF000BD46BDE8B08F00BF003802400024F4009C
:102D000040787D0180B400AF034B1B681846BD4678
:102D10005DF8047B704700BF0000002080B500AF65
:102D2000FFF7F0FF0246054B9B689B0A03F0070381
:102D30000349CB5C22FA03F3184680BD00380240F9
:102D4000BC89000880B500AFFFF7DCFF0246054BE9
:102D50009B685B0B03F007030349CB5C22FA03F388
:102D6000184680BD00380240BC89000880B582B09A
:102D700000AF78607B68002B01D101233FE07B68C6
:102D800093F83D30DBB2002B06D17B68002283F83C
:102D90003C207868FEF786FB7B68242283F83D2080
:102DA0007B681B68DA687B681B6822F40052DA6073
:102DB000786800F07BFD7B681B681A697B681B687C
:102DC00022F490421A617B681B685A697B681B6811
:102DD00022F02A025A617B681B68DA687B681B68EC
:102DE00042F40052DA607B6800221A647B68202279
:102DF00083F83D207B68202283F83E20002318467C
:102E00000837BD4680BD80B58AB002AFF860B960B2
:102E10003B601346FB8000237B61FB6893F83D30E9
:102E2000DBB2202B7CD1BB68002B02D0FB88002BAF
:102E300001D1012375E0FB6893F83C30012B01D1EF
:102E400002236EE0FB68012283F83C20FB6800222D
:102E50001A64FB68212283F83D20FEF707FD7861A4
:102E6000FB68FA889A84FB68FA88DA84FB689B68B6
:102E7000B3F5805F08D1FB681B69002B04D10023E8
:102E8000FB61BB68BB6103E0BB68FB610023BB6106
:102E9000FB68002283F83C202AE03B6800937B69B2
:102EA00000228021F86800F0F9FA0346002B01D0D7
:102EB000032336E0FB69002B0BD1BB691B881A4644
:102EC000FB681B68C2F308025A60BB690233BB612E
:102ED00007E0FB691A78FB681B685A60FB690133DD
:102EE000FB61FB68DB8C9BB2013B9AB2FB68DA8426
:102EF000FB68DB8C9BB2002BCFD13B6800937B69D6
:102F000000224021F86800F0C9FA0346002B01D0E6
:102F1000032306E0FB68202283F83D20002300E025
:102F2000022318462037BD4680BD000080B5BAB0E8
:102F300000AF78607B681B681B68C7F8E4307B686B
:102F40001B68DB68C7F8E0307B681B685B69C7F803
:102F5000DC300023C7F8D8300023C7F8D430D7F8C6
:102F6000E43003F00F03C7F8D830D7F8D830002B7F
:102F70000FD1D7F8E43003F02003002B09D0D7F8A5
:102F8000E03003F02003002B03D0786800F0D3FB7F
:102F900056E2D7F8D830002B00F0DE80D7F8DC30CE
:102FA00003F00103002B06D1D7F8E03003F490734F
:102FB000002B00F0D180D7F8E43003F00103002BA0
:102FC0000BD0D7F8E03003F48073002B05D07B687A
:102FD0001B6C43F001027B681A64D7F8E43003F0FD
:102FE0000403002B0BD0D7F8DC3003F00103002BD7
:102FF00005D07B681B6C43F002027B681A64D7F82B
:10300000E43003F00203002B0BD0D7F8DC3003F0E0
:103010000103002B05D07B681B6C43F004027B6826
:103020001A64D7F8E43003F00803002B11D0D7F866
:10303000E03003F02003002B05D1D7F8DC3003F09B
:103040000103002B05D07B681B6C43F008027B68F2
:103050001A647B681B6C002B00F0ED81D7F8E4301C
:1030600003F02003002B08D0D7F8E03003F0200352
:10307000002B02D0786800F05EFB7B681B685B6900
:1030800003F04003402B0CBF01230023DBB2C7F841
:10309000D4307B681B6C03F00803002B03D1D7F8F6
:1030A000D430002B4FD0786800F066FA7B681B683C
:1030B0005B6903F04003402B41D17B681B681433EC
:1030C000C7F89C30D7F89C3053E8003FC7F89830D9
:1030D000D7F8983023F04003C7F8D0307B681B68DE
:1030E0001433D7F8D020C7F8A820C7F8A430D7F8F1
:1030F000A410D7F8A82041E80023C7F8A030D7F8DB
:10310000A030002BD9D17B689B6B002B13D07B6840
:103110009B6B7D4A1A657B689B6B1846FEF733FDF7
:103120000346002B16D07B689B6B1B6D7A68926BF5
:10313000104698470EE0786800F09AF90AE078683F
:1031400000F096F906E0786800F092F97B680022BA
:103150001A6470E100BF6EE17B681B6B012B40F0CD
:103160004A81D7F8E43003F01003002B00F04381CC
:10317000D7F8E03003F01003002B00F03C8100236F
:10318000BB607B681B681B68BB607B681B685B68F7
:10319000BB60BB687B681B685B6903F04003402B26
:1031A00040F0B4807B689B6B1B685B68A7F8BE30FF
:1031B000B7F8BE30002B00F040817B689B8DB7F8DC
:1031C000BE209A4280F039817B68B7F8BE20DA854C
:1031D0007B689B6BDB69B3F5807F00F088807B6840
:1031E0001B680C33C7F88830D7F8883053E8003FA5
:1031F000C7F88430D7F8843023F48073C7F8B83028
:103200007B681B680C33D7F8B820C7F89420C7F840
:103210009030D7F89010D7F8942041E80023C7F8F1
:103220008C30D7F88C30002BD9D17B681B681433D5
:103230007B677B6F53E8003F3B673B6F23F00103E5
:10324000C7F8B4307B681B681433D7F8B420C7F8CC
:103250008020FB67F96FD7F8802041E80023BB6727
:10326000BB6F002BE1D17B681B6814333B663B6E60
:1032700053E8003FFB65FB6D23F04003C7F8B03017
:103280007B681B681433D7F8B020FA66BB66B96E4A
:10329000FA6E41E800237B667B6E002BE3D17B68EE
:1032A000202283F83E207B6800221A637B681B681B
:1032B0000C33FB64FB6C53E8003FBB64BB6C23F036
:1032C0001003C7F8AC307B681B680C33D7F8AC2010
:1032D000BA657B65796DBA6D41E800233B653B6D4E
:1032E000002BE3D17B689B6B1846FEF7DCFB7B6809
:1032F0009A8D7B68DB8D9BB2D31A9BB21946786896
:1033000000F0C0F899E000BF3F3600087B689A8D56
:103310007B68DB8D9BB2D31AA7F8CE307B68DB8D40
:103320009BB2002B00F08B80B7F8CE30002B00F062
:1033300086807B681B680C33BB63BB6B53E8003F24
:103340007B637B6B23F49073C7F8C8307B681B6882
:103350000C33D7F8C8207A643B64396C7A6C41E846
:103360000023FB63FB6B002BE3D17B681B681433EA
:103370007B627B6A53E8003F3B623B6A23F00103B8
:10338000C7F8C4307B681B681433D7F8C4203A638D
:10339000FB62F96A3A6B41E80023BB62BB6A002B0F
:1033A000E3D17B68202283F83E207B6800221A63E9
:1033B0007B681B680C333B613B6953E8003FFB6053
:1033C000FB6823F01003C7F8C0307B681B680C3320
:1033D000D7F8C020FA61BB61B969FA6941E80023F6
:1033E0007B617B69002BE3D1B7F8CE301946786852
:1033F00000F048F823E0D7F8E43003F08003002B16
:1034000009D0D7F8E03003F08003002B03D07868B0
:1034100000F029F914E0D7F8E43003F04003002B62
:103420000ED0D7F8E03003F04003002B08D07868C6
:1034300000F069F904E000BF02E000BF00E000BF57
:10344000E837BD4680BD00BF80B483B000AF786070
:1034500000BF0C37BD465DF8047B704780B483B075
:1034600000AF786000BF0C37BD465DF8047B704745
:1034700080B483B000AF786000BF0C37BD465DF804
:10348000047B704780B483B000AF78600B467B80CC
:1034900000BF0C37BD465DF8047B704780B590B027
:1034A00000AFF860B9603B601346FB7150E0BB6C45
:1034B000B3F1FF3F4CD0BB6C002B07D0FEF7D6F921
:1034C00002463B68D31ABA6C9A4241D2FB681B6829
:1034D0000C33BB62BB6A53E8003F7B627B6A23F418
:1034E000D073FB63FB681B680C33FA6B7A633B6336
:1034F000396B7A6B41E80023FB62FB6A002BE5D154
:10350000FB681B6814337B617B6953E8003F3B61B8
:103510003B6923F00103BB63FB681B681433BA6B80
:103520003A62FB61F9693A6A41E80023BB61BB6911
:10353000002BE5D1FB68202283F83D20FB68202288
:1035400083F83E20FB68002283F83C2003230FE031
:10355000FB681B681A68BB681340BA689A420CBFC4
:1035600001230023DBB21A46FB799A429FD0002345
:1035700018464037BD4680BD80B495B000AF786036
:103580007B681B680C337B637B6B53E8003F3B63BA
:103590003B6B23F49073FB647B681B680C33FA6C01
:1035A0003A64FB63F96B3A6C41E80023BB63BB6B85
:1035B000002BE5D17B681B6814333B623B6A53E800
:1035C000003FFB61FB6923F00103BB647B681B6860
:1035D0001433BA6CFA62BB62B96AFA6A41E8002332
:1035E0007B627B6A002BE5D17B681B6B012B19D1B9
:1035F0007B681B680C33FB60FB6853E8003FBB60D3
:10360000BB6823F010037B647B681B680C337A6C07
:10361000BA617B617969BA6941E800233B613B6922
:10362000002BE5D17B68202283F83E207B680022B6
:103630001A6300BF5437BD465DF8047B704780B500
:1036400084B000AF78607B689B6BFB60FB680022F6
:10365000DA85FB680022DA84F868FFF709FF00BF0B
:103660001037BD4680BD80B485B000AF78607B6800
:1036700093F83D30DBB2212B3ED17B689B68B3F5DC
:10368000805F14D17B681B69002B10D17B681B6A9B
:10369000FB60FB681B881A467B681B68C2F3080244
:1036A0005A607B681B6A9A1C7B681A6208E07B6818
:1036B0001B6A591C7A6811621A787B681B685A6009
:1036C0007B68DB8C9BB2013B9BB27A681946D18444
:1036D000002B0FD17B681B68DA687B681B6822F0BF
:1036E0008002DA607B681B68DA687B681B6842F0DE
:1036F0004002DA60002300E0022318461437BD467A
:103700005DF8047B704780B582B000AF78607B685D
:103710001B68DA687B681B6822F04002DA607B680D
:10372000202283F83D207868FFF78EFE002318469C
:103730000837BD4680BD80B58CB000AF78607B682F
:1037400093F83E30DBB2222B40F0AB807B689B6865
:10375000B3F5805F17D17B681B69002B13D1002361
:10376000FB627B689B6ABB627B681B685B689BB281
:10377000C3F308039AB2BB6A1A807B689B6A9A1CDF
:103780007B689A6226E07B689B6AFB620023BB62CF
:103790007B689B68B3F5805F07D07B689B68002BD4
:1037A0000AD17B681B69002B06D17B681B685B68AC
:1037B000DAB2FB6A1A7008E07B681B685B68DBB2F0
:1037C00003F07F03DAB2FB6A1A707B689B6A5A1CAB
:1037D0007B689A627B68DB8D9BB2013B9BB27A6807
:1037E0001946D185002B5AD17B681B68DA687B6843
:1037F0001B6822F02002DA607B681B68DA687B684D
:103800001B6822F48072DA607B681B685A697B68E7
:103810001B6822F001025A617B68202283F83E2057
:103820007B681B6B012B35D17B6800221A637B6898
:103830001B680C337B617B6953E8003F3B613B694C
:1038400023F010037B627B681B680C337A6A3A6250
:10385000FB61F9693A6A41E80023BB61BB69002B4F
:10386000E5D17B681B681B6803F01003102B0AD19D
:103870000023FB607B681B681B68FB607B681B6820
:103880005B68FB60FB687B689B8D19467868FFF777
:10389000F9FD02E07868FFF7E1FD002302E0002374
:1038A00000E0022318463037BD4680BD2DE9B04FF9
:1038B000C0B000AFC7F8F400D7F8F4301B681B693C
:1038C00023F44050D7F8F430D968D7F8F4301A68A8
:1038D00040EA01031361D7F8F4309A68D7F8F4305E
:1038E0001B691A43D7F8F4305B691A43D7F8F430F0
:1038F000DB691343C7F8F830D7F8F4301B68DB688E
:1039000023F4164121F00C01D7F8F4301A68D7F8E7
:10391000F8300B43D360D7F8F4301B685B6923F4AD
:103920004070D7F8F4309969D7F8F4301A6840EA53
:1039300001035361D7F8F4301A688F4B9A4205D0CF
:10394000D7F8F4301A688D4B9A4204D1FFF7FAF990
:10395000C7F8FC0003E0FFF7E1F9C7F8FC00D7F86F
:10396000F430DB69B3F5004F40F00C81D7F8FC3040
:103970000022C7F8E830C7F8EC20D7E93A452246DC
:103980002B469118B9655B41FB65D7E916232146A3
:1039900012EB0108294643EB01094FF000024FF0FA
:1039A00000034FEAC90343EA58734FEAC80290463E
:1039B0009946234618EB0303C7F8E0302B4649EB42
:1039C0000303C7F8E430D7F8F4305B680022C7F887
:1039D000D830C7F8DC20D7E936120B46DB183B6538
:1039E000134642EB03037B65D7E91423D7E938017B
:1039F000FDF7E2F802460B46614BA3FB02235B098D
:103A00001C01D7F8FC300022C7F8D030C7F8D4200A
:103A1000D7E9348942464B469118B9645B41FB644F
:103A2000D7E91223414612EB010A494643EB010B49
:103A30004FF000024FF000034FEACB0343EA5A7302
:103A40004FEACA0292469B4643461AEB0303C7F865
:103A5000C8304B464BEB0303C7F8CC30D7F8F430F3
:103A60005B680022C7F8C030C7F8C420D7E930121D
:103A70000B46DB183B64134642EB03037B64D7E938
:103A80001023D7E93201FDF797F802460B4611469D
:103A90003B4BA3FB01235B09642202FB03F3CB1A1C
:103AA000DB0003F13202364BA3FB02235B095B0010
:103AB00003F4F8731C44D7F8FC300022C7F8B83080
:103AC000C7F8BC20D7E92E8942464B469118B96306
:103AD0005B41FB63D7E90E234146511839634946E0
:103AE0004B417B634FF000024FF00003D7E90CAB72
:103AF0005946CB00514643EA51735146CA0010461D
:103B00001946034642469B18C7F8B0304B460A4652
:103B100042EB0303C7F8B430D7F8F4305B680022F7
:103B2000C7F8A830C7F8AC20D7E92A120B46DB1833
:103B3000BB62134642EB0303FB62D7E90A23D7E9D2
:103B40002C01FDF739F802460B460D4BA3FB02137F
:103B50005B09642101FB03F3D31ADB003233084A0B
:103B6000A2FB03235B0903F00702D7F8F4301B68BC
:103B700022449A6005E100BF00100140001401409A
:103B80001F85EB51D7F8FC300022C7F8A030C7F8EA
:103B9000A420D7E9288942464B46911839625B41F7
:103BA0007B62D7E9082341465418494643EB010597
:103BB0004FF000024FF00003EB0043EA5473E200C1
:103BC00014461D464346E318C7F898304B4645EB6C
:103BD0000303C7F89C30D7F8F4305B680022C7F8BD
:103BE0009030C7F894204FF000024FF00003D7E95F
:103BF000244529468B00214643EA917321468A00D9
:103C0000D7E92601FCF7D8FF02460B46604BA3FB21
:103C100002235B091C01D7F8FC300022C7F888306A
:103C2000C7F88C20D7E9228942464B469118B961E2
:103C30005B41FB61D7E9062341465118396149468A
:103C40004B417B614FF000024FF00003D7E904AB1A
:103C50005946CB00514643EA51735146CA001046BB
:103C60001946034642469B18C7F880304B460A4621
:103C700042EB0303C7F88430D7F8F4305B680022C6
:103C8000BB67FA674FF000024FF00003D7E91E89C7
:103C900049468B00414643EA917341468A00D7E981
:103CA0002001FCF789FF02460B46394BA3FB0213A8
:103CB0005B09642101FB03F3D31A1B013233344A3D
:103CC000A2FB03235B0903F0F0031C44D7F8FC308C
:103CD00000223B677A67D7E91C8942464B46911818
:103CE000B9605B41FB60D7E9022341465118396056
:103CF00049464B417B604FF000024FF00003D7E98B
:103D000000AB5946CB00514643EA51735146CA00B5
:103D100010461946034642469B18BB664B460A4668
:103D200042EB0303FB66D7F8F4305B6800223B6686
:103D30007A664FF000024FF00003D7E91889494630
:103D40008B00414643EA917341468A00D7E91A0144
:103D5000FCF732FF02460B460D4BA3FB02135B0937
:103D6000642101FB03F3D31A1B013233084AA2FB7F
:103D700003235B0903F00F02D7F8F4301B682244D9
:103D80009A6000BF07F58077BD46BDE8B08F00BFE1
:103D90001F85EB51014B1868704700BF0C000020D5
:103DA00070B50D4D0D4C641BA4100026A64209D120
:103DB0000B4D0C4C04F04AFD641BA4100026A642D7
:103DC00005D170BD55F8043B98470136EEE755F82C
:103DD000043B98470136F2E7648D0008648D0008C3
:103DE000648D00086C8D000802440346934200D1A4
:103DF000704703F8011BF9E70CB430B5174B0C1EE4
:103E00001D689DB008DA8B232B604FF0FF301DB08A
:103E1000BDE8304002B070474FF40273ADF8143083
:103E200014BF04F1FF332346049307934FF6FF7347
:103E300002900690ADF81630209A21AB02A92846D0
:103E4000019300F00DF8431CBCBF8B232B60002CAA
:103E5000DDD0029B00221A70D9E700BF0C000020C1
:103E60002DE9F04F2DED048BCFB0884691461E46CC
:103E7000824602F073F9036813931846FCF7B0F911
:103E8000B8F80C300D9018061AD5D8F81030BBB918
:103E90004021504602F06AF9C8F80000C8F8100046
:103EA00058B90C23CAF800304FF0FF330C930C982C
:103EB0004FB0BDEC048BBDE8F08F4023C8F8143040
:103EC0009FED937B0025CDE923558DED0E7BCDE94C
:103ED000155525AC229405950A95129514950C95C7
:103EE0004B461D4613F8012B0AB1252AF9D1B5EB33
:103EF00009070DD0249B3B442493239B0133072BBC
:103F0000C4E90097239379DC08340C9B3B440C9361
:103F10002B78002B01F0488100234FF0FF320492F0
:103F200001358DF86B3010939B460A272B222B46C8
:103F300013F8011B06910B93069B203B5A2B00F2B2
:103F4000BF85DFE813F07E00BD05BD058600BD0519
:103F5000BD05BD056500BD05BD0589009300BD0516
:103F600090009600BD05B300B600B600B600B600DE
:103F7000B600B600B600B600B600BD05BD05BD056D
:103F8000BD05BD05BD05BD052C01BD05E900FC0055
:103F90002C012C012C01BD05BD05BD05BD05C600CC
:103FA000BD05BD059804BD05BD05BD05E204BD0503
:103FB0000305BD05BD052505BD05BD05BD05BD0543
:103FC000BD05BD05BD05BD052C01BD05E900FE0013
:103FD0002C012C012C01C900FE00DD00BD05D6001E
:103FE000BD0573049A04D004DD00BD05E2047C0025
:103FF0000505BD05BD054405BD057C0022AA414659
:10400000504602F09AFE002840F0378125AC7CE74C
:10401000504602F0A3F8436814931846FCF7E0F802
:104020001290504602F09AF883680A93129B2B2252
:104030002BB10A9B1BB11B780BB14BF4806B0B9D12
:1040400075E79DF86B30002BF9D120238DF86B308C
:10405000F5E74BF0010BF2E756F8043B1093002B09
:10406000EDDA5B4210934BF0040BE8E78DF86B2020
:10407000E5E70B9D15F8013B06932A2B13D156F863
:10408000040B0B9540EAE0730493D8E7049907FB0F
:104090000133049315F8013B0693069B303B092B33
:1040A000F4D90B9548E700230493F6E74BF0800B17
:1040B000C5E700230B9D1093069B1099303B07FB2F
:1040C0000133109315F8013B0693303B092BF3D9CC
:1040D000E7E74BF0080BB2E70B9B1B78682B01BF9F
:1040E0000B9B01330B934BF4007B18BF4BF0400B41
:1040F000A5E70B9B1B786C2B05D10B9B01330B9316
:104100004BF0200B9BE74BF0100B98E7AFF30080D0
:1041100000000000000000003246002052F8043B7E
:1041200007928DF8D4308DF86B000123CDE908009B
:1041300003900493064605460DF1D409BCE14BF00B
:10414000100B1BF0200F12D0F31D23F007031A46AB
:104150005D6852F8086B0792002D06DA76424FF040
:104160002D0365EB45058DF86B30012396E333464F
:104170001BF0100F53F8045B079302D02E46ED1787
:10418000EAE71BF0400F03D02EB245F3C035E3E75A
:104190001BF4007FF2D06EB245F3C015DCE70736A2
:1041A00026F00703B3EC027B8DED0E7B07930E9B8D
:1041B00009EE103A0F9B23F0004309EE903A4FF0BE
:1041C000FF323A4B51EC190BFCF7B8FC10BB374BE4
:1041D00051EC190B4FF0FF32FCF792FCD0B9DDE93E
:1041E0000E0100220023FCF781FC10B12D238DF875
:1041F0006B302F4A2F48069B0021472BD4BF914696
:1042000081460323CDE903132BF0800B00263346B0
:1042100001F000B8DDE90E2310461946FCF78EFCCC
:1042200040B10F9B244A2548002BBCBF2D238DF89D
:104230006B30E0E7069B23F02003412B089325D148
:1042400030238DF86C30069B612B0CBF78235823EC
:104250008DF86D30049B632B4BF0020B30DD591C45
:10426000504601F083FF8146002840F0FD81B8F8F8
:104270000C3043F04003A8F80C30B8F80C3013F0C1
:10428000400F0C9B18BF4FF0FF330FE6049B013328
:1042900000F0EC81089B472B40F0EB81049B002B46
:1042A00040F0E7810393012304930CE0FFFFEF7FCD
:1042B000C8890008CC890008D0890008D489000882
:1042C00003900DF1D4094BF4807311930F9B002BD5
:1042D00080F2D1810E9B08EE103A0F9B03F1004350
:1042E00008EE903A2D231893089B412B40F0E18172
:1042F000B0EE480AF0EE680A1CA802F0C3FC0022E7
:104300004FF07F5351EC100BFCF77EF90022002395
:1043100006460F46FCF7E0FB08B101231C93A74BB0
:10432000A74A0699612918BF1A46049B1792013BB8
:1043300005934D46A34B002230463946FCF764F9FD
:104340000F460646FCF710FC1990FCF7F3F80246FE
:104350000B4630463946FBF79FFF199A179B9B5C2B
:1043600005F8013B059B09935A1C06460F4607D0EA
:10437000013B059300220023FCF7AEFB0028D9D0B7
:10438000914B002230463946FCF7CEFB60B98E4B8C
:10439000002230463946FCF79FFB002800F084815C
:1043A000199BDB0740F18081179B2095D97B30203A
:1043B000209A531E209312F8013C8B4200F0638137
:1043C000392B0BBF179B01339B7ADBB202F8013C00
:1043D000A5EB09030593089B1C9D472B40F0B18179
:1043E000EF1C03DB049BAB4280F2D681069B023BB1
:1043F000069306999DF8182021F02001412908BF55
:104400000F3205F1FF3306BFD2B201210021002B8C
:104410001C93B8BFC5F101038DF87820B4BF2D22DD
:104420002B22092B8DF8792040F3A4810DF187020E
:104430000A26114693FBF6F506FB1530303001F8DD
:10444000010C1846632802F1FF322B46F1DC3033B1
:10445000881E02F8013C0DF187050DF17A02034632
:10446000AB42C0F082810DF18902521AA84288BF86
:1044700000220DF17A031A441EABD31A059A159344
:10448000012A1344049302DC1BF0010F03D0049BA8
:104490000D9A134404932BF4806343F480731193B7
:1044A0000023CDE908331D46189B13B12D238DF849
:1044B0006B30DDF844B00026049BB342B8BF3346EE
:1044C00011939DF86B3013B1119B013311931BF0C5
:1044D000020317931EBF119B023311931BF0840339
:1044E00018931FD1DDE910329F1A002F1ADDDDE984
:1044F000233236482060102F03F1010304F1080134
:1045000000F3ED826760072B1744CDE9233740F3B2
:10451000F98222AA4146504602F00FFC002840F0E2
:10452000218625AC9DF86B3073B10DF16B032360D0
:1045300001236360249B01332493239B0133072BC6
:10454000239300F3E1820834179B6BB11BAB23600C
:1045500002236360249B02332493239B0133072BA4
:10456000239300F3DB820834189B802B1FD1DDE9F5
:1045700010329F1A002F1ADDDDE923321448206023
:10458000102F03F1010304F1080100F3D1826760E9
:10459000072B1744CDE9233740F3DD8222AA414699
:1045A000504602F0CAFB002840F0DC8525AC049B95
:1045B000F61A002E28DD064F0CE000BFE98900083E
:1045C000D8890008000030400000E03FFC89000866
:1045D0000C8A00082760DDE92332102E03F1010365
:1045E00004F1080100F3B9826660072B1644CDE997
:1045F000233640F3C58222AA4146504602F09DFB75
:10460000002840F0AF8525AC1BF4807F249E40F04D
:10461000BD82049BC4F800901E4463602496239BD3
:104620000133072B239300F3F68208341BF0040FA9
:1046300040F07A85DDE910210C9B8A42ACBF9B18C3
:104640005B180C93249B3BB122AA4146504602F0D2
:1046500074FB002840F0868500232393039B002BE6
:1046600040F09C8525ACECE003902CE603900623FB
:104670001AE6039027E69DED0E7B0023B0EE478AF5
:10468000F0EE678A2FE602F8010C91E603F8010BC1
:10469000CA1A002AFADA099A099B013203F10103C6
:1046A000B8BF00231D4493E6099A2B46A918302071
:1046B000EEE7089B462B05D0452B1BD1049B5D1CC8
:1046C000022101E0049D032120AB01931DAB009367
:1046D0002A461CAB5046B0EE480AF0EE680A00F0DD
:1046E0003FFE089B472B814606D11BF0010F03D1EB
:1046F000209D6DE6049DE3E7089B462B09EB05062C
:104700000FD199F80030302B09D151EC180B002251
:104710000023FCF7E1F910B9C5F101051C951C9BBC
:104720001E4451EC180B00220023FCF7D5F900B110
:1047300020963022209B9E42DAD9591C20911A7073
:10474000F8E7089B462B7FF454AE049A0BF0010364
:10475000002D43EA02031ADD002B34D00D9BEB1829
:104760001A4404926623069333E013F8016B02F8AF
:10477000016B75E641B930228DF87A200DF17B028C
:10478000303302F8013B77E60DF17A02F8E7E3B146
:104790000D9B049A0133E3E7059B9D4207DB1BF069
:1047A000010F2DD00D9BEB1804936723DBE7059BCE
:1047B0000D9A002D13440493F7DC049AC5F101030C
:1047C0001A440492F1E70495CCE76623069301238B
:1047D00004931BF48063099325D00023002DCDE9B9
:1047E00008337FF761AE0A9B1B78FF2B0AD1DDE906
:1047F000082312991344049A01FB0323049353E6FC
:104800000495D2E7AB42F2DAED1A0A9B5B7833B13A
:10481000099B013309930A9B01330A93E3E7089B41
:1048200001330893DFE7099B08933DE6331D1BF036
:10483000200F07930AD00C9A33680C99D217C3E95A
:104840000012079EDDF82C90FFF74ABB1BF0100FFB
:1048500003D033680C9A1A60F3E71BF0400F03D0C3
:1048600033680C9A1A80ECE71BF4007FF1D03368B0
:104870000C9A1A70E5E74BF0100B1BF020031FD0C9
:10488000F31D23F007031A465D6852F8086B079280
:104890002BF4806B002300228DF86B20049A0132E8
:1048A00000F08D8456EA05022BF0800740F08C84DE
:1048B000049A002A00F0F980012B40F088849FE0E0
:1048C00032461BF0100552F8046B079201D01D46CA
:1048D000DEE71BF0400301D0B6B2D9E71BF4007548
:1048E000D6D0F6B2F3E73346782253F8046B079339
:1048F00030238DF86C30A34B169300254BF0020B40
:104900008DF86D2002230692C5E73346002553F843
:10491000049B0793049B8DF86B50581C10D01A46CB
:1049200029464846FBF764FC0390002800F0D48039
:10493000A0EB0903CDE90353CDE908552E46BBE5AD
:104940004846FBF74DFCCDE903505FE44BF0100BFC
:104950001BF0200309D0F31D23F007031A465D68FE
:1049600052F8086B0792012395E732461BF01005B9
:1049700052F8046B079201D01D46F4E71BF0400388
:1049800001D0B6B2EFE71BF40075ECD0F6B2F3E756
:104990007D4B16931BF020031BD0F31D23F0070360
:1049A0001A465D6852F8086B07921BF0010F0AD097
:1049B00056EA050307D030238DF86C30069B8DF83E
:1049C0006D304BF0020B2BF4806B022363E76D4BD1
:1049D000DFE732461BF0100552F8046B079201D056
:1049E0001D46E2E71BF0400301D0B6B2DDE71BF441
:1049F0000075DAD0F6B2F3E70A2E75F1000305D29E
:104A000030368DF837610DF23719FBE3002305933B
:104A100007F480630DF59C7B03930A220023304644
:104A20002946FCF7C9F8059B01330593039B3032F7
:104A30000BF1FF390BF8012CD3B10A9B059A1B78B7
:104A40009A4215D1FF2A13D00A2E75F100030FD315
:104A5000129B1499A9EB03091A46484602F05AF929
:104A60000A9B5B781BB10A9B01330A9300230593D1
:104A700000230A2230462946FCF79EF80A2E75F1DB
:104A80000003C0F0BF8306460D46CB46C5E706F0DF
:104A90000F03169A3609D35C09F8013D46EA0576FC
:104AA0002D0956EA0503F2D1ACE333B91BF0010F2F
:104AB00003D030238DF83731A5E70DF59C79A1E3BC
:104AC000069B002B00F0708300208DF8D4308DF809
:104AD0006B000796FFF729BB039EFFF798BB1020DA
:104AE0000244072BCDE92332606008DD22AA41464B
:104AF000504602F022F9002840F0348325A9103FE7
:104B00000C46F4E40C460DE522AA4146504602F05C
:104B100014F9002840F0268325AC15E522AA414669
:104B2000504602F00AF9002840F01C8325AC1BE532
:104B300010200244072BCDE92332606008DD22AA51
:104B40004146504602F0F9F8002840F00B8325A9B1
:104B5000103F0C4610E50C4629E510200244072BB7
:104B6000CDE92332606008DD22AA4146504602F0BA
:104B7000E4F8002840F0F68225A9103E0C4629E50D
:104B80000C4641E5D8890008E9890008069B652B99
:104B900040F33082DDE90E0100220023FBF79CFF89
:104BA000002868D06D4B236001231E446360239B63
:104BB00024960133072B239337DC08341C9B059A7A
:104BC000934203DB1BF0010F3FF430AD139B2360D6
:104BD0000D9B0D9A6360249B13442493239B013304
:104BE000072B23932BDC0834059B5D1E002D7FF7DC
:104BF0001DAD5B4E1027DDE92332102D03F10103BB
:104C000004F10801266024DC6560072B1544CDE91A
:104C1000233540F3868222AA4146504602F08DF8A1
:104C2000002840F09F8225AC00E522AA414650466C
:104C300002F083F8002840F0958225ACBEE722AA56
:104C40004146504602F079F8002840F08B8225ACAE
:104C5000CAE71032072BCDE92332676008DD22AAAC
:104C60004146504602F069F8002840F07B8225A9B1
:104C7000103D0C46BFE71C9B002B73DC374B2360B9
:104C800001231E446360239B24960133072B239347
:104C90003DDC083405991C9A249B0A430BF0010162
:104CA0000A433FF4C3AC139A22600D9A6260134426
:104CB0002493239B0133072B239332DC08341C9D60
:104CC000002D1BDA264E6D4223461027DDE92321F5
:104CD000102D02F1010204F108041E602BDC5D605E
:104CE000072A0D44CDE9232508DD22AA4146504676
:104CF00002F023F8002840F0358225AC059B059A88
:104D00006360249BC4F800901344249387E422AA90
:104D10004146504602F011F8002840F0238225ACAD
:104D2000B8E722AA4146504602F007F8002840F0B2
:104D3000198225ACC3E71031072ACDE923215F6032
:104D400008DD22AA4146504601F0F7FF002840F056
:104D5000098225AC103D2346B8E700BFFA89000858
:104D60000C8A0008059FAF42A8BF2F46002F0ADD1E
:104D7000239B01333E44072BC4E9009724962393D9
:104D800000F385800834002FACBFEE1B2E46002EAA
:104D900019DD974F2760DDE92332102E03F101035F
:104DA00004F108017DDC6660072B1644CDE923364B
:104DB00040F38A8022AA4146504601F0BEFF0028F7
:104DC00040F0D08125AC1BF4806F4D440AD0099B84
:104DD000002B7BD1089B002B7BD1059B4B449D4234
:104DE00028BF1D461C9B059A934202DB1BF0010F56
:104DF0000ED0139B23600D9B0D9A6360249B13447C
:104E00002493239B0133072B239300F3DD80083485
:104E1000059B1C9E09EB03029E1B521B9642A8BFDA
:104E20001646002E0BDD249B33442493239B013331
:104E3000072BC4E90056239300F3D08008341C9D4F
:104E4000059B002EA3EB0505A8BFAD1B002D7FF72A
:104E5000EDAB674E1027DDE92332102D03F101037E
:104E600004F1080126607FF7CFAE1032072BCDE9A1
:104E70002332676008DD22AA4146504601F05DFFFB
:104E8000002840F06F8125A9103D0C46E3E722AAD7
:104E90004146504601F051FF002840F0638125ACA7
:104EA00071E710200244072BCDE92332606008DD52
:104EB00022AA4146504601F040FF002840F05281AE
:104EC00025A9103E0C4665E70C467CE7089B002BA5
:104ED0004AD0089B013B0893149B2360129B129AB3
:104EE0006360249B13442493239B0133072B239358
:104EF00041DC0834059B0A9A09EB03077B1B1778F2
:104F00009F42A8BF1F46002F0ADD249B3B442493E9
:104F1000239B0133072BC4E90057239335DC083466
:104F20000A9B1E78002FA8BFF61B002E18DDDDE9B6
:104F300023322F482060102E03F1010304F10801F1
:104F40002DDC3244072BCDE9233266603ADD22AAFC
:104F50004146504601F0F1FE002840F0038125ACA7
:104F60000A9B1B781D4432E70A9B013B0A93099B6D
:104F7000013B0993B0E722AA4146504601F0DDFE0D
:104F8000002840F0EF8025ACB4E722AA4146504605
:104F900001F0D3FE002840F0E58025ACC0E71020EA
:104FA0000244072BCDE92332606008DD22AA414686
:104FB000504601F0C2FE002840F0D48025A9103EE2
:104FC0000C46B4E70C46CBE722AA4146504601F016
:104FD000B4FE002840F0C68025AC19E722AA41465D
:104FE000504601F0AAFE002840F0BC8025AC26E720
:104FF0000C8A0008059A239B012A06F1010603F199
:10500000010304F1080502DC1BF0010F7ED0012230
:10501000072BCDE92336C4F80090626008DD22AA90
:105020004146504601F089FE002840F09B8025ADA6
:10503000139B2B600D9B0D9A6B60249B1344249350
:10504000239B0133072B239332DC0835059BDDE9D5
:105050000E015C1E00220023FBF73EFD002830D12C
:105060002399249B059A0131013B09F10100134466
:105070000729C5E90004CDE9231350DD22AA4146E2
:10508000504601F05AFE00286CD125AD1EAB2B60B6
:10509000159B159A6B60249B13442493239B013327
:1050A000072B23933FF7B7AD05F10804FFF7BEBA0E
:1050B00022AA4146504601F040FE002852D125ADBB
:1050C000C4E7002CE2DD564E1027DDE92332102C18
:1050D00003F1010305F108012E6007DC6C60072B6A
:1050E0001444CDE92334C9DC0D46CFE71032072B39
:1050F000CDE923326F6006DD22AA4146504601F019
:105100001CFE78BB25A9103C0D46DEE70122072BCB
:10511000CDE92336C4F800906260B7DDAEE708350C
:10512000B4E70C46FFF782BADDE910329D1A002D74
:105130007FF780AA3B4E1027DDE92332102D03F1C3
:105140000103266018DC6560072B1544CDE9233583
:105150007FF770AA22AA4146504601F0EEFD0028D2
:105160003FF468AA039B002B3FF487A819465046DA
:1051700000F034FFFFF781B81032072BCDE923325E
:10518000676002DC0834103DD6E722AA414650464B
:1051900001F0D3FD0028E5D125ACF4E70399504692
:1051A00000F01CFFFFF75EBA249B002B3FF465A8BC
:1051B00022AA4146504601F0C0FDFFF75EB856EA0C
:1051C00005025F463FF478AB012B3FF415AC022B90
:1051D0000DF59C793FF45BAC06F00703F60846EA50
:1051E0004576ED08303356EA05014A4609F8013D97
:1051F000F2D1F90706D5302B04D0302309F8013C51
:10520000A2F102094EABA3EB0903049E0493002311
:10521000BB460393CDE908331D46FFF74DB900BFE8
:105220000C8A0008FC890008024B13B1024800F008
:1052300005B87047000000000D5F0008002301461C
:105240001A46184601F002BE2DE9F74F03690C69B2
:10525000A3420746C0F28180013C01F1140800F12D
:10526000140505EB8403019358F8243055F82420E5
:1052700001339A424FEA840B08EB8409B2FBF3F640
:1052800031D34FF0000E4046AC46F24650F8042BA6
:1052900093B206FB03E34FEA134E9BB2AAEB030360
:1052A000DCF800A0120C13FA8AF306FB02E200936A
:1052B000009B4FEA124E92B2C2EB1A4202EB23421B
:1052C000BDF80030814543EA02434CF8043B4FEA05
:1052D000224ADBD255F80B302BB9019B043B9D428F
:1052E0001A462ED33C61384601F0CAFB002824DB65
:1052F000013628464FF0000C58F8042BD0F800E097
:1053000093B2ACEB0303120C13FA8EF3C2EB1E4202
:1053100002EB23429BB243EA0243C14540F8043BFF
:105320004FEA224CE8D255F8242005EB840322B939
:10533000043B9D421A460AD33C61304603B0BDE8A7
:10534000F08F1268043B002ACCD1013CC7E71268F9
:10535000043B002AF0D1013CEBE70020EEE700001F
:105360002DE9F04F2DED048B93B057EC106B0691A7
:10537000016C209D099210EE10AA04460C93BB46C6
:1053800041B1426C4A60012393408B6001F069F99E
:10539000002323643B1EAABF002323F0004B2B6095
:1053A000A34BBCBF01222A6033EA0B031BD10C9A2A
:1053B00042F20F731360CBF31303334300F0908575
:1053C000219B0BB99B4B22E09A4B01930333219A0B
:1053D0001360019813B0BDEC048BBDE8F08F964BC1
:1053E00001930833F3E70022002350465946FBF7A8
:1053F00073FB4BEC19AB804658B10C9A0123136038
:10540000219B002B00F069858C481860431E019396
:10541000DFE74BEC10AB10AA11A9204601F0D6FB38
:10542000CBF30A5508EE100A002D00F0828019EE29
:10543000903AC3F3130343F07F57564647F440179F
:10544000A5F2FF35CDF838807D4B00223046394635
:10545000FAF722FF70A3D3E90023FBF7D5F870A376
:10546000D3E90023FAF71AFF064628460F46FBF752
:1054700061F86DA3D3E90023FBF7C6F802460B469B
:1054800030463946FAF70AFF06460F46FBF76CFB33
:1054900000220090002330463946FBF727FB50B12D
:1054A0000098FBF747F832463B46FBF715FB10B96F
:1054B000009B013B0093009B162B58D8009A614B30
:1054C00003EBC203D3E9002351EC190BFBF70EFBEE
:1054D00000284ED0009B013B009300230B93109BB0
:1054E0005D1B6B1E059345BFC5F1010304930023AB
:1054F00000234CBF05930493009B002B3BDB059BD3
:10550000009A0A921344059300230793069B092BE4
:1055100069D8052BC4BF043B0693069BA3F1020385
:10552000CCBF00250125032B68D8DFE803F02D3A16
:10553000385ADDE910531D4405F23243202BC1BF18
:10554000C3F1400305F212400BFA03F326FA00F010
:10555000DABFC3F1200306FA03F01843FAF7DAFFC3
:1055600001230646A1F1F877013D0E936CE7012374
:10557000B4E70B90B3E7049B009A9B1A0493534241
:10558000079300230A93C1E700230893099B002B8C
:1055900037DC0123CDE902331A4609920CE00123DE
:1055A000F3E70023099A0893009B13440293013305
:1055B000012B0393B8BF012300226264042202F18D
:1055C00014009842616C20D9204601F025F8019022
:1055D00000283DD11C4B02464FF4D5711B4801F009
:1055E00077FC0123DEE701250023069308954FF0A1
:1055F000FF33CDE9023300221223CEE701230893C3
:10560000F5E7099BCDE90233D6E701316164520029
:10561000D5E700BFAFF3008061436F63A787D23F38
:10562000B3C8608B288AC63FFB799F501344D33F91
:105630000000F07F1C8A0008208A0008FB8900080F
:105640000000F83F208B0008298A00083A8A0008E9
:10565000019B2364039B0E2B00F29D80002D00F024
:105660009A80009B002B32DDB74A03F00F0302EB58
:10567000C303D3E90089009BD8054FEA231716D549
:10568000B24B51EC190BD3E90823FBF7E7F807F00D
:105690000F0782468B460325AC4E57B942464B4610
:1056A00050465946FBF7DAF882468B4628E0022539
:1056B000F2E7F90708D540464946D6E90023FAF74C
:1056C000A3FF0135804689467F100836E5E700F0E4
:1056D0009B80009B9D4F5E429B4B06F00F0203EBAD
:1056E000C203D3E9002351EC190BFAF78DFF3611F1
:1056F00082468B4600230225002E7AD1002BD3D17F
:105700000B9B002B00F08280914B002250465946A3
:10571000FBF7ECF9002879D0039B002B76D0029B95
:10572000002B36DD009B504659465F1E0022894BF8
:10573000FAF76AFF029E82468B4601352846FAF741
:10574000F9FE52465B46FAF75FFF834B0022FAF7F9
:10575000A5FDD046D9468246A1F1507B002E58D1F6
:105760007E4B002240464946FAF796FD52465B467C
:1057700080468946FBF7D8F9002840F096825246C9
:105780000BF1004340464946FBF7B0F9002840F0D2
:105790008A825BEC19AB119B002BC0F24981009A05
:1057A0000E2A00F34581684B03EBC203D3E900895D
:1057B000099B002B80F2D680039B002B00F3D28044
:1057C00040F07082654B002240464946FAF71CFFC4
:1057D00052465B46FBF79EF9039E3746002840F091
:1057E0004682019D312305F8013B009B0133009364
:1057F00041E2F20705D5D7E90023FAF705FF0135A5
:1058000001237610083777E7022579E7009F039E8A
:1058100094E701994C4B31440D91089903EBC60371
:1058200053E90223002943D04D490020FBF716F825
:1058300052465B46FAF730FD019D82468B4649464B
:105840004046FBF791F90646FAF774FE02460B460E
:1058500040464946FAF720FD303605F8016B5246BE
:105860005B4680468946FBF741F9002863D14246F2
:105870004B4637490020FAF70FFD52465B46FBF7CF
:1058800035F9002840F0B6800D9B9D4281D0314B08
:10589000002250465946FAF7B7FE2E4B82468B46F9
:1058A000404649460022FAF7AFFE80468946C6E7E1
:1058B00050465946FAF7A8FE0D9B019D0F9382466C
:1058C0008B4649464046FBF74FF90646FAF732FE4B
:1058D000303602460B4640464946FAF7DDFC05F8ED
:1058E000016B0D9B9D42804689464FF0000224D1FA
:1058F0001B4B50465946FAF7D1FC02460B46404630
:105900004946FBF711F9002874D152465B46144909
:105910000020FAF7C1FC02460B4640464946FBF719
:10592000E5F800283FF435AF0F9D6B1E0F9315F877
:10593000013C302BF8D000974AE0064BFAF764FEA2
:1059400080468946BDE700BF208B0008F88A000822
:105950000000F03F0000244000001C400000144004
:105960000000E03F019D56465F4642464B463046AA
:105970003946FAF773FFFBF7F7F88246FAF7DAFDD4
:1059800042464B46FAF740FE02460B463046394641
:105990000AF13006FAF780FC05F8016B019E039FBF
:1059A000AE1BB74202460B4635D1FAF777FC4246AA
:1059B0004B4606460F46FBF7B7F8D0B942464B4672
:1059C00030463946FBF788F810B11AF0010F10D1B4
:1059D000204618EE101A00F044FE002300982B70A9
:1059E0000C9B01301860219B002B3FF4F2AC1D6032
:1059F000EFE4009F2B461D4613F8012D392A06D1EE
:105A0000019A9A42F7D10199302201370A701A7827
:105A100001321A708FE7A64B0022FAF7F5FD00223B
:105A2000002306460F46FBF757F800289DD0CFE726
:105A3000089A002A00F0D780069A012A00F3BA805B
:105A40000E9A002A00F0B28003F23343079E049DB1
:105A5000049A1A440492059A01211A442046059298
:105A600000F09EFE0746002D0CDD059B002B09DD96
:105A7000AB42049AA8BF2B46D21A0492059AED1A9B
:105A8000D31A0593079B1BB3089B002B00F0AF8034
:105A9000002E13DD39463246204600F041FF18EE55
:105AA000102A01460746204600F090FE18EE101A14
:105AB0008046204600F0D5FD08EE108A079B9A1B11
:105AC00006D018EE101A204600F02AFF08EE100A41
:105AD0000121204600F064FE0A9B002B064640F39D
